{
  "contractName": "Calculator",
  "abi": [
    {
      "inputs": [
        {
          "internalType": "uint256",
          "name": "a",
          "type": "uint256"
        },
        {
          "internalType": "uint256",
          "name": "b",
          "type": "uint256"
        }
      ],
      "name": "add",
      "outputs": [
        {
          "internalType": "uint256",
          "name": "",
          "type": "uint256"
        }
      ],
      "stateMutability": "pure",
      "type": "function"
    },
    {
      "inputs": [
        {
          "internalType": "uint256",
          "name": "a",
          "type": "uint256"
        },
        {
          "internalType": "uint256",
          "name": "b",
          "type": "uint256"
        }
      ],
      "name": "subtract",
      "outputs": [
        {
          "internalType": "uint256",
          "name": "",
          "type": "uint256"
        }
      ],
      "stateMutability": "pure",
      "type": "function"
    },
    {
      "inputs": [
        {
          "internalType": "uint256",
          "name": "a",
          "type": "uint256"
        },
        {
          "internalType": "uint256",
          "name": "b",
          "type": "uint256"
        }
      ],
      "name": "multiply",
      "outputs": [
        {
          "internalType": "uint256",
          "name": "",
          "type": "uint256"
        }
      ],
      "stateMutability": "pure",
      "type": "function"
    },
    {
      "inputs": [
        {
          "internalType": "uint256",
          "name": "a",
          "type": "uint256"
        },
        {
          "internalType": "uint256",
          "name": "b",
          "type": "uint256"
        }
      ],
      "name": "divide",
      "outputs": [
        {
          "internalType": "uint256",
          "name": "",
          "type": "uint256"
        }
      ],
      "stateMutability": "pure",
      "type": "function"
    },
    {
      "inputs": [
        {
          "internalType": "uint256",
          "name": "a",
          "type": "uint256"
        },
        {
          "internalType": "uint256",
          "name": "b",
          "type": "uint256"
        }
      ],
      "name": "exponent",
      "outputs": [
        {
          "internalType": "uint256",
          "name": "",
          "type": "uint256"
        }
      ],
      "stateMutability": "pure",
      "type": "function"
    },
    {
      "inputs": [
        {
          "internalType": "uint256",
          "name": "a",
          "type": "uint256"
        }
      ],
      "name": "square",
      "outputs": [
        {
          "internalType": "uint256",
          "name": "",
          "type": "uint256"
        }
      ],
      "stateMutability": "pure",
      "type": "function"
    }
  ],
  "bytecode": "0x608060405234801561001057600080fd5b50610680806100206000396000f3fe608060405234801561001057600080fd5b50600436106100625760003560e01c8063165c4a16146100675780632f8cd8b1146100975780633ef5e445146100c7578063771602f7146100f75780637b29290914610127578063f88e9fbf14610157575b600080fd5b610081600480360381019061007c919061027f565b610187565b60405161008e91906102ce565b60405180910390f35b6100b160048036038101906100ac919061027f565b61019d565b6040516100be91906102ce565b60405180910390f35b6100e160048036038101906100dc919061027f565b6101b3565b6040516100ee91906102ce565b60405180910390f35b610111600480360381019061010c919061027f565b6101c9565b60405161011e91906102ce565b60405180910390f35b610141600480360381019061013c91906102e9565b6101df565b60405161014e91906102ce565b60405180910390f35b610171600480360381019061016c919061027f565b6101ec565b60405161017e91906102ce565b60405180910390f35b600081836101959190610345565b905092915050565b600081836101ab91906104ba565b905092915050565b600081836101c19190610505565b905092915050565b600081836101d79190610539565b905092915050565b6000600282189050919050565b6000808203610230576040517f08c379a0000000000000000000000000000000000000000000000000000000008152600401610227906105ca565b60405180910390fd5b818361023c9190610619565b905092915050565b600080fd5b6000819050919050565b61025c81610249565b811461026757600080fd5b50565b60008135905061027981610253565b92915050565b6000806040838503121561029657610295610244565b5b60006102a48582860161026a565b92505060206102b58582860161026a565b9150509250929050565b6102c881610249565b82525050565b60006020820190506102e360008301846102bf565b92915050565b6000602082840312156102ff576102fe610244565b5b600061030d8482850161026a565b91505092915050565b7f4e487b7100000000000000000000000000000000000000000000000000000000600052601160045260246000fd5b600061035082610249565b915061035b83610249565b925082820261036981610249565b915082820484148315176103805761037f610316565b5b5092915050565b60008160011c9050919050565b6000808291508390505b60018511156103de578086048111156103ba576103b9610316565b5b60018516156103c95780820291505b80810290506103d785610387565b945061039e565b94509492505050565b6000826103f757600190506104b3565b8161040557600090506104b3565b816001811461041b576002811461042557610454565b60019150506104b3565b60ff84111561043757610436610316565b5b8360020a91508482111561044e5761044d610316565b5b506104b3565b5060208310610133831016604e8410600b84101617156104895782820a90508381111561048457610483610316565b5b6104b3565b6104968484846001610394565b925090508184048111156104ad576104ac610316565b5b81810290505b9392505050565b60006104c582610249565b91506104d083610249565b92506104fd7fffffffffffffffffffffffffffffffffffffffffffffffffffffffffffffffff84846103e7565b905092915050565b600061051082610249565b915061051b83610249565b925082820390508181111561053357610532610316565b5b92915050565b600061054482610249565b915061054f83610249565b925082820190508082111561056757610566610316565b5b92915050565b600082825260208201905092915050565b7f4469766973696f6e206279207a65726f00000000000000000000000000000000600082015250565b60006105b460108361056d565b91506105bf8261057e565b602082019050919050565b600060208201905081810360008301526105e3816105a7565b9050919050565b7f4e487b7100000000000000000000000000000000000000000000000000000000600052601260045260246000fd5b600061062482610249565b915061062f83610249565b92508261063f5761063e6105ea565b5b82820490509291505056fea26469706673582212207e2cf19333c0b28965fddfae86414c83073cfa52953d946fd2738be20e07887064736f6c63430008130033",
  "immutableReferences": {},
  "source": "pragma solidity ^0.8.0;\r\n\r\ncontract Calculator {\r\n  function add(uint256 a, uint256 b) public pure returns (uint256) {\r\n    return a + b;\r\n  }\r\n\r\n  function subtract(uint256 a, uint256 b) public pure returns (uint256) {\r\n    return a - b;\r\n  }\r\n\r\n  function multiply(uint256 a, uint256 b) public pure returns (uint256) {\r\n    return a * b;\r\n  }\r\n\r\n  function divide(uint256 a, uint256 b) public pure returns (uint256) {\r\n    require(b != 0, \"Division by zero\");\r\n    return a / b;\r\n  }\r\n  function exponent(uint256 a, uint256 b) public pure returns (uint256) {\r\n      return a**b;\r\n  }\r\n  function square(uint256 a) public pure returns (uint256){\r\n      return a^2;\r\n  }\r\n}\r\n",
  "sourcePath": "C:\\Users\\manas\\Documents\\calculator-dapp\\contracts\\calculator.sol",
  "compiler": {
    "name": "solc",
    "version": "0.8.19+commit.7dd6d404.Emscripten.clang"
  },
  "schemaVersion": "3.4.13",
  "updatedAt": "2023-05-26T06:28:52.774Z",
  "devdoc": {
    "kind": "dev",
    "methods": {},
    "version": 1
  },
  "userdoc": {
    "kind": "user",
    "methods": {},
    "version": 1
  }
}